{
  "contractName": "SmartContract",
  "abi": [
    {
      "constant": true,
      "inputs": [],
      "name": "name",
      "outputs": [
        {
          "name": "",
          "type": "string"
        }
      ],
      "payable": false,
      "stateMutability": "view",
      "type": "function",
      "signature": "0x06fdde03"
    },
    {
      "constant": true,
      "inputs": [],
      "name": "totalSupply",
      "outputs": [
        {
          "name": "",
          "type": "uint256"
        }
      ],
      "payable": false,
      "stateMutability": "view",
      "type": "function",
      "signature": "0x18160ddd"
    },
    {
      "constant": true,
      "inputs": [],
      "name": "decimals",
      "outputs": [
        {
          "name": "",
          "type": "uint8"
        }
      ],
      "payable": false,
      "stateMutability": "view",
      "type": "function",
      "signature": "0x313ce567"
    },
    {
      "constant": true,
      "inputs": [],
      "name": "symbol",
      "outputs": [
        {
          "name": "",
          "type": "string"
        }
      ],
      "payable": false,
      "stateMutability": "view",
      "type": "function",
      "signature": "0x95d89b41"
    },
    {
      "inputs": [
        {
          "name": "initialSupply",
          "type": "uint256"
        },
        {
          "name": "owner",
          "type": "address"
        }
      ],
      "payable": false,
      "stateMutability": "nonpayable",
      "type": "constructor",
      "signature": "constructor"
    },
    {
      "anonymous": false,
      "inputs": [
        {
          "indexed": true,
          "name": "you",
          "type": "address"
        },
        {
          "indexed": true,
          "name": "receiver",
          "type": "address"
        },
        {
          "indexed": false,
          "name": "amount",
          "type": "uint256"
        }
      ],
      "name": "Transfer",
      "type": "event",
      "signature": "0xddf252ad1be2c89b69c2b068fc378daa952ba7f163c4a11628f55a4df523b3ef"
    },
    {
      "anonymous": false,
      "inputs": [
        {
          "indexed": false,
          "name": "number",
          "type": "uint256"
        }
      ],
      "name": "Log",
      "type": "event",
      "signature": "0x909c57d5c6ac08245cf2a6de3900e2b868513fa59099b92b27d8db823d92df9c"
    },
    {
      "constant": true,
      "inputs": [],
      "name": "getTotalSupply",
      "outputs": [
        {
          "name": "",
          "type": "uint256"
        }
      ],
      "payable": false,
      "stateMutability": "view",
      "type": "function",
      "signature": "0xc4e41b22"
    },
    {
      "constant": true,
      "inputs": [
        {
          "name": "owner",
          "type": "address"
        }
      ],
      "name": "getBalanceOf",
      "outputs": [
        {
          "name": "",
          "type": "uint256"
        }
      ],
      "payable": false,
      "stateMutability": "view",
      "type": "function",
      "signature": "0x9b96eece"
    },
    {
      "constant": false,
      "inputs": [
        {
          "name": "receiver",
          "type": "address"
        },
        {
          "name": "amount",
          "type": "uint256"
        }
      ],
      "name": "sendAmount",
      "outputs": [
        {
          "name": "",
          "type": "bool"
        }
      ],
      "payable": false,
      "stateMutability": "nonpayable",
      "type": "function",
      "signature": "0x5d461de5"
    }
  ],
  "bytecode": "0x608060405234801561001057600080fd5b506040516040806107998339810180604052604081101561003057600080fd5b81019080805190602001909291908051906020019092919050505081600181905550816000808373ffffffffffffffffffffffffffffffffffffffff1673ffffffffffffffffffffffffffffffffffffffff168152602001908152602001600020819055508073ffffffffffffffffffffffffffffffffffffffff16600073ffffffffffffffffffffffffffffffffffffffff167fddf252ad1be2c89b69c2b068fc378daa952ba7f163c4a11628f55a4df523b3ef846040518082815260200191505060405180910390a3505061068d8061010c6000396000f3fe608060405260043610610083576000357c0100000000000000000000000000000000000000000000000000000000900463ffffffff16806306fdde031461008857806318160ddd14610118578063313ce567146101435780635d461de51461017457806395d89b41146101e75780639b96eece14610277578063c4e41b22146102dc575b600080fd5b34801561009457600080fd5b5061009d610307565b6040518080602001828103825283818151815260200191508051906020019080838360005b838110156100dd5780820151818401526020810190506100c2565b50505050905090810190601f16801561010a5780820380516001836020036101000a031916815260200191505b509250505060405180910390f35b34801561012457600080fd5b5061012d610340565b6040518082815260200191505060405180910390f35b34801561014f57600080fd5b50610158610346565b604051808260ff1660ff16815260200191505060405180910390f35b34801561018057600080fd5b506101cd6004803603604081101561019757600080fd5b81019080803573ffffffffffffffffffffffffffffffffffffffff1690602001909291908035906020019092919050505061034b565b604051808215151515815260200191505060405180910390f35b3480156101f357600080fd5b506101fc6105d6565b6040518080602001828103825283818151815260200191508051906020019080838360005b8381101561023c578082015181840152602081019050610221565b50505050905090810190601f1680156102695780820380516001836020036101000a031916815260200191505b509250505060405180910390f35b34801561028357600080fd5b506102c66004803603602081101561029a57600080fd5b81019080803573ffffffffffffffffffffffffffffffffffffffff16906020019092919050505061060f565b6040518082815260200191505060405180910390f35b3480156102e857600080fd5b506102f1610657565b6040518082815260200191505060405180910390f35b6040805190810160405280600781526020017f455049434f494e0000000000000000000000000000000000000000000000000081525081565b60015481565b601281565b60007f909c57d5c6ac08245cf2a6de3900e2b868513fa59099b92b27d8db823d92df9c826040518082815260200191505060405180910390a1600073ffffffffffffffffffffffffffffffffffffffff168373ffffffffffffffffffffffffffffffffffffffff161415151561044f576040517f08c379a00000000000000000000000000000000000000000000000000000000081526004018080602001828103825260258152602001807f5061732064652064c3a9646f75626c656d656e7420646520706572736f6e6e6181526020017f6c6974c3a900000000000000000000000000000000000000000000000000000081525060400191505060405180910390fd5b6104583361060f565b82111515156104cf576040517f08c379a00000000000000000000000000000000000000000000000000000000081526004018080602001828103825260138152602001807f50617320617373657a20646520666c6f757a650000000000000000000000000081525060200191505060405180910390fd5b816000803373ffffffffffffffffffffffffffffffffffffffff1673ffffffffffffffffffffffffffffffffffffffff16815260200190815260200160002060008282540392505081905550816000808573ffffffffffffffffffffffffffffffffffffffff1673ffffffffffffffffffffffffffffffffffffffff168152602001908152602001600020600082825401925050819055508273ffffffffffffffffffffffffffffffffffffffff163373ffffffffffffffffffffffffffffffffffffffff167fddf252ad1be2c89b69c2b068fc378daa952ba7f163c4a11628f55a4df523b3ef846040518082815260200191505060405180910390a36001905092915050565b6040805190810160405280600381526020017f455043000000000000000000000000000000000000000000000000000000000081525081565b60008060008373ffffffffffffffffffffffffffffffffffffffff1673ffffffffffffffffffffffffffffffffffffffff168152602001908152602001600020549050919050565b600060015490509056fea165627a7a72305820ac09fb39af9f5bc77705b0476f86170a7acf11f1a545d2a4479fb05a25e8f6290029",
  "source": "pragma solidity >=0.4.21 <0.6.0;\n\ncontract SmartContract\n{\n    // Un dictionnaire d'adresses de compte & de montants\n    mapping(address => uint256) kvpBalances;\n\n    // Le \"titre\" du contrat.\n    string public constant name = \"EPICOIN\";\n    // Le \"symbole\" du contrat.\n    string public constant symbol = \"EPC\";\n    // Le nombre minimal de \"monnaie\" que le contrat peut recevoir à la création.\n    uint8 public constant decimals = 18;\n\n    uint256 public totalSupply;\n\n    event Transfer(address indexed you, address indexed receiver, uint256 amount);\n    event Log(uint256 number);\n\n    constructor (uint256 initialSupply, address owner) public\n    {\n        totalSupply = initialSupply;\n        kvpBalances[owner] = initialSupply;\n        emit Transfer(address(0), owner, initialSupply);\n    }\n\n    // view ~= constant. Fonction pure et fonctionelle, sans effet de bord. Getter de totalSupply\n    function getTotalSupply() public view returns (uint256)\n    {\n        return totalSupply;\n    }\n\n    function getBalanceOf(address owner) public view returns (uint256) {\n        return kvpBalances[owner];\n    }\n\n    /*\n    * Méthode pour envoyer un montant à une addresse.\n    * On vérifie que l'envoyeur n'est pas le receveur, et que son solde est suffisant.\n    * On déduit la somme de la balance de l'envoyeur, on l'ajoute au solde du receveur.\n    * On appelle Transfer \n    */\n    function sendAmount(address receiver, uint256 amount) public returns (bool) {\n        emit Log(amount);\n        require(receiver != address(0), \"Pas de dédoublement de personnalité\");\n        require(amount <= getBalanceOf(msg.sender), \"Pas assez de flouze\");\n\n        kvpBalances[msg.sender] -= amount;\n        kvpBalances[receiver] += amount;\n\n        emit Transfer(msg.sender, receiver, amount);\n        return true;\n    }\n}",
  "sourcePath": "C:/Users/Narcisse/source/repos/BlockChain/contracts/SmartContract.sol",
  "compiler": {
    "name": "solc",
    "version": "0.5.0+commit.1d4f565a.Emscripten.clang"
  },
  "schemaVersion": "3.0.2",
  "updatedAt": "2019-02-23T14:41:30.672Z",
  "devdoc": {
    "methods": {}
  },
  "userdoc": {
    "methods": {}
  }
}