{
  "contractName": "DAVE",
  "abi": [
    {
      "constant": false,
      "inputs": [],
      "name": "renounceOwnership",
      "outputs": [],
      "payable": false,
      "stateMutability": "nonpayable",
      "type": "function",
      "signature": "0x715018a6"
    },
    {
      "constant": true,
      "inputs": [],
      "name": "owner",
      "outputs": [
        {
          "name": "",
          "type": "address"
        }
      ],
      "payable": false,
      "stateMutability": "view",
      "type": "function",
      "signature": "0x8da5cb5b"
    },
    {
      "constant": true,
      "inputs": [],
      "name": "isOwner",
      "outputs": [
        {
          "name": "",
          "type": "bool"
        }
      ],
      "payable": false,
      "stateMutability": "view",
      "type": "function",
      "signature": "0x8f32d59b"
    },
    {
      "constant": false,
      "inputs": [
        {
          "name": "newOwner",
          "type": "address"
        }
      ],
      "name": "transferOwnership",
      "outputs": [],
      "payable": false,
      "stateMutability": "nonpayable",
      "type": "function",
      "signature": "0xf2fde38b"
    },
    {
      "anonymous": false,
      "inputs": [
        {
          "indexed": true,
          "name": "previousOwner",
          "type": "address"
        },
        {
          "indexed": true,
          "name": "newOwner",
          "type": "address"
        }
      ],
      "name": "OwnershipTransferred",
      "type": "event",
      "signature": "0x8be0079c531659141344cd1fd0a4f28419497f9722a3daafe3b4186f6b6457e0"
    },
    {
      "constant": false,
      "inputs": [
        {
          "name": "user",
          "type": "address"
        }
      ],
      "name": "addMember",
      "outputs": [],
      "payable": false,
      "stateMutability": "nonpayable",
      "type": "function",
      "signature": "0xca6d56dc"
    },
    {
      "constant": false,
      "inputs": [
        {
          "name": "user",
          "type": "address"
        }
      ],
      "name": "revMember",
      "outputs": [],
      "payable": false,
      "stateMutability": "nonpayable",
      "type": "function",
      "signature": "0x8e29bfa8"
    },
    {
      "constant": false,
      "inputs": [
        {
          "name": "text",
          "type": "string"
        }
      ],
      "name": "addProposal",
      "outputs": [],
      "payable": false,
      "stateMutability": "nonpayable",
      "type": "function",
      "signature": "0x2fdae3c5"
    },
    {
      "constant": false,
      "inputs": [
        {
          "name": "id",
          "type": "uint256"
        }
      ],
      "name": "revProposal",
      "outputs": [],
      "payable": false,
      "stateMutability": "nonpayable",
      "type": "function",
      "signature": "0xe17b00c7"
    },
    {
      "constant": false,
      "inputs": [
        {
          "name": "id",
          "type": "uint256"
        }
      ],
      "name": "openVote",
      "outputs": [],
      "payable": false,
      "stateMutability": "nonpayable",
      "type": "function",
      "signature": "0x8d00f82e"
    },
    {
      "constant": false,
      "inputs": [
        {
          "name": "id",
          "type": "uint256"
        }
      ],
      "name": "closeVote",
      "outputs": [],
      "payable": false,
      "stateMutability": "nonpayable",
      "type": "function",
      "signature": "0x6e48a035"
    },
    {
      "constant": false,
      "inputs": [
        {
          "name": "id",
          "type": "uint256"
        },
        {
          "name": "res",
          "type": "bool"
        }
      ],
      "name": "vote",
      "outputs": [],
      "payable": false,
      "stateMutability": "nonpayable",
      "type": "function",
      "signature": "0xc9d27afe"
    }
  ],
  "bytecode": "0x608060405260006001556000600355336000806101000a81548173ffffffffffffffffffffffffffffffffffffffff021916908373ffffffffffffffffffffffffffffffffffffffff1602179055506000809054906101000a900473ffffffffffffffffffffffffffffffffffffffff1673ffffffffffffffffffffffffffffffffffffffff16600073ffffffffffffffffffffffffffffffffffffffff167f8be0079c531659141344cd1fd0a4f28419497f9722a3daafe3b4186f6b6457e060405160405180910390a3611199806100d96000396000f3fe6080604052600436106100af576000357c0100000000000000000000000000000000000000000000000000000000900463ffffffff1680632fdae3c5146100b45780636e48a0351461017c578063715018a6146101b75780638d00f82e146101ce5780638da5cb5b146102095780638e29bfa8146102605780638f32d59b146102b1578063c9d27afe146102e0578063ca6d56dc14610327578063e17b00c714610378578063f2fde38b146103b3575b600080fd5b3480156100c057600080fd5b5061017a600480360360208110156100d757600080fd5b81019080803590602001906401000000008111156100f457600080fd5b82018360208201111561010657600080fd5b8035906020019184600183028401116401000000008311171561012857600080fd5b91908080601f016020809104026020016040519081016040528093929190818152602001838380828437600081840152601f19601f820116905080830192505050505050509192919290505050610404565b005b34801561018857600080fd5b506101b56004803603602081101561019f57600080fd5b8101908080359060200190929190505050610569565b005b3480156101c357600080fd5b506101cc6106f7565b005b3480156101da57600080fd5b50610207600480360360208110156101f157600080fd5b81019080803590602001909291905050506107c9565b005b34801561021557600080fd5b5061021e6108d3565b604051808273ffffffffffffffffffffffffffffffffffffffff1673ffffffffffffffffffffffffffffffffffffffff16815260200191505060405180910390f35b34801561026c57600080fd5b506102af6004803603602081101561028357600080fd5b81019080803573ffffffffffffffffffffffffffffffffffffffff1690602001909291905050506108fc565b005b3480156102bd57600080fd5b506102c6610974565b604051808215151515815260200191505060405180910390f35b3480156102ec57600080fd5b506103256004803603604081101561030357600080fd5b81019080803590602001909291908035151590602001909291905050506109cb565b005b34801561033357600080fd5b506103766004803603602081101561034a57600080fd5b81019080803573ffffffffffffffffffffffffffffffffffffffff169060200190929190505050610ae9565b005b34801561038457600080fd5b506103b16004803603602081101561039b57600080fd5b8101908080359060200190929190505050610b69565b005b3480156103bf57600080fd5b50610402600480360360208110156103d657600080fd5b81019080803573ffffffffffffffffffffffffffffffffffffffff169060200190929190505050610c6c565b005b600260003373ffffffffffffffffffffffffffffffffffffffff1673ffffffffffffffffffffffffffffffffffffffff16815260200190815260200160002060009054906101000a900460ff16151561045c57600080fd5b6080604051908101604052808281526020016000151581526020016000600281111561048457fe5b815260200160006040519080825280602002602001820160405280156104b95781602001602082028038833980820191505090505b50815250600460006003600081548092919060010191905055815260200190815260200160002060008201518160000190805190602001906104fc929190610f92565b5060208201518160010160006101000a81548160ff02191690831515021790555060408201518160010160016101000a81548160ff0219169083600281111561054157fe5b02179055506060820151816002019080519060200190610562929190611012565b5090505050565b600260003373ffffffffffffffffffffffffffffffffffffffff1673ffffffffffffffffffffffffffffffffffffffff16815260200190815260200160002060009054906101000a900460ff1615156105c157600080fd5b80600060028111156105cf57fe5b6004600083815260200190815260200160002060010160019054906101000a900460ff1660028111156105fe57fe5b14151561060a57600080fd5b600115156004600084815260200190815260200160002060010160009054906101000a900460ff16151514151561064057600080fd5b61064982610c8b565b1561068b5760016004600084815260200190815260200160002060010160016101000a81548160ff0219169083600281111561068157fe5b02179055506106c4565b60026004600084815260200190815260200160002060010160016101000a81548160ff021916908360028111156106be57fe5b02179055505b60006004600084815260200190815260200160002060010160006101000a81548160ff0219169083151502179055505050565b6106ff610974565b151561070a57600080fd5b600073ffffffffffffffffffffffffffffffffffffffff166000809054906101000a900473ffffffffffffffffffffffffffffffffffffffff1673ffffffffffffffffffffffffffffffffffffffff167f8be0079c531659141344cd1fd0a4f28419497f9722a3daafe3b4186f6b6457e060405160405180910390a360008060006101000a81548173ffffffffffffffffffffffffffffffffffffffff021916908373ffffffffffffffffffffffffffffffffffffffff160217905550565b600260003373ffffffffffffffffffffffffffffffffffffffff1673ffffffffffffffffffffffffffffffffffffffff16815260200190815260200160002060009054906101000a900460ff16151561082157600080fd5b806000600281111561082f57fe5b6004600083815260200190815260200160002060010160019054906101000a900460ff16600281111561085e57fe5b14151561086a57600080fd5b600015156004600084815260200190815260200160002060010160009054906101000a900460ff1615151415156108a057600080fd5b60016004600084815260200190815260200160002060010160006101000a81548160ff0219169083151502179055505050565b60008060009054906101000a900473ffffffffffffffffffffffffffffffffffffffff16905090565b610904610974565b151561090f57600080fd5b600260008273ffffffffffffffffffffffffffffffffffffffff1673ffffffffffffffffffffffffffffffffffffffff16815260200190815260200160002060006101000a81549060ff02191690556001600081548092919060019003919050555050565b60008060009054906101000a900473ffffffffffffffffffffffffffffffffffffffff1673ffffffffffffffffffffffffffffffffffffffff163373ffffffffffffffffffffffffffffffffffffffff1614905090565b600260003373ffffffffffffffffffffffffffffffffffffffff1673ffffffffffffffffffffffffffffffffffffffff16815260200190815260200160002060009054906101000a900460ff161515610a2357600080fd5b8160006002811115610a3157fe5b6004600083815260200190815260200160002060010160019054906101000a900460ff166002811115610a6057fe5b141515610a6c57600080fd5b6004600084815260200190815260200160002060030160003373ffffffffffffffffffffffffffffffffffffffff1673ffffffffffffffffffffffffffffffffffffffff16815260200190815260200160002060009054906101000a900460ff16151515610ad957600080fd5b610ae4833384610dae565b505050565b610af1610974565b1515610afc57600080fd5b6001600260008373ffffffffffffffffffffffffffffffffffffffff1673ffffffffffffffffffffffffffffffffffffffff16815260200190815260200160002060006101000a81548160ff02191690831515021790555060016000815480929190600101919050555050565b600260003373ffffffffffffffffffffffffffffffffffffffff1673ffffffffffffffffffffffffffffffffffffffff16815260200190815260200160002060009054906101000a900460ff161515610bc157600080fd5b8060006002811115610bcf57fe5b6004600083815260200190815260200160002060010160019054906101000a900460ff166002811115610bfe57fe5b141515610c0a57600080fd5b6004600083815260200190815260200160002060008082016000610c2e919061109c565b6001820160006101000a81549060ff02191690556001820160016101000a81549060ff0219169055600282016000610c6691906110e4565b50505050565b610c74610974565b1515610c7f57600080fd5b610c8881610e98565b50565b600080600460008481526020019081526020016000209050600080905060008090506000836002018054905060015403905060008090505b8460020180549050811015610d8b57600115158560030160008760020184815481101515610ced57fe5b9060005260206000200160009054906101000a900473ffffffffffffffffffffffffffffffffffffffff1673ffffffffffffffffffffffffffffffffffffffff1673ffffffffffffffffffffffffffffffffffffffff16815260200190815260200160002060009054906101000a900460ff1615151415610d75578380600101945050610d7e565b82806001019350505b8080600101915050610cc3565b5080820183101515610da05760019450610da5565b600094505b50505050919050565b600460008481526020019081526020016000206002018290806001815401808255809150509060018203906000526020600020016000909192909190916101000a81548173ffffffffffffffffffffffffffffffffffffffff021916908373ffffffffffffffffffffffffffffffffffffffff16021790555050806004600085815260200190815260200160002060030160008473ffffffffffffffffffffffffffffffffffffffff1673ffffffffffffffffffffffffffffffffffffffff16815260200190815260200160002060006101000a81548160ff021916908315150217905550505050565b600073ffffffffffffffffffffffffffffffffffffffff168173ffffffffffffffffffffffffffffffffffffffff1614151515610ed457600080fd5b8073ffffffffffffffffffffffffffffffffffffffff166000809054906101000a900473ffffffffffffffffffffffffffffffffffffffff1673ffffffffffffffffffffffffffffffffffffffff167f8be0079c531659141344cd1fd0a4f28419497f9722a3daafe3b4186f6b6457e060405160405180910390a3806000806101000a81548173ffffffffffffffffffffffffffffffffffffffff021916908373ffffffffffffffffffffffffffffffffffffffff16021790555050565b828054600181600116156101000203166002900490600052602060002090601f016020900481019282601f10610fd357805160ff1916838001178555611001565b82800160010185558215611001579182015b82811115611000578251825591602001919060010190610fe5565b5b50905061100e9190611105565b5090565b82805482825590600052602060002090810192821561108b579160200282015b8281111561108a5782518260006101000a81548173ffffffffffffffffffffffffffffffffffffffff021916908373ffffffffffffffffffffffffffffffffffffffff16021790555091602001919060010190611032565b5b509050611098919061112a565b5090565b50805460018160011615610100020316600290046000825580601f106110c257506110e1565b601f0160209004906000526020600020908101906110e09190611105565b5b50565b50805460008255906000526020600020908101906111029190611105565b50565b61112791905b8082111561112357600081600090555060010161110b565b5090565b90565b61116a91905b8082111561116657600081816101000a81549073ffffffffffffffffffffffffffffffffffffffff021916905550600101611130565b5090565b9056fea165627a7a723058205415375af1bf28842c5acb060521ade082c420428c40ff772adcc96673f948c50029",
  "source": "pragma solidity ^0.5.0;\r\n\r\nimport 'openzeppelin-solidity/contracts/ownership/Ownable.sol';\r\n\r\ncontract DAVE is Ownable {\r\n  enum  State { Proposed, Validated, Refused }\r\n\r\n  uint numMembers = 0;\r\n  mapping (address => bool) members;\r\n  struct  Law {\r\n    string lawHash;\r\n    bool  voteOpen;\r\n    State lawState;\r\n    address[] addrPool;\r\n    mapping (address => bool) votePool;\r\n  }\r\n  uint numLaw = 0;\r\n  mapping (uint => Law) lawList;\r\n\r\n  modifier onlyMembers {\r\n    require(members[msg.sender]);\r\n    _;\r\n  }\r\n\r\n  modifier checkProposal(uint id) {\r\n    require(lawList[id].lawState == State.Proposed);\r\n    _;\r\n  }\r\n\r\n  function modifyState(uint id, State value) private {\r\n    lawList[id].lawState = value;\r\n  }\r\n\r\n  function wrapVote(uint id) private view returns (bool res) {\r\n    Law storage elem  = lawList[id];\r\n    uint y    = 0;\r\n    uint n    = 0;\r\n    uint u    = numMembers - elem.addrPool.length;\r\n\r\n    for (uint i = 0; i < elem.addrPool.length; i++) {\r\n      if (elem.votePool[elem.addrPool[i]] == true) {\r\n        y++;\r\n      } else {\r\n        n++;\r\n      }\r\n    }\r\n    if (y >= n + u) {\r\n      res = true;\r\n    } else {\r\n      res = false;\r\n    }\r\n  }\r\n\r\n  function addVote(uint id, address user, bool res) private {\r\n    lawList[id].addrPool.push(user);\r\n    lawList[id].votePool[user] = res;\r\n  }\r\n\r\n  function addMember(address user) public onlyOwner {\r\n    members[user] = true;\r\n    numMembers++;\r\n  }\r\n\r\n  function revMember(address user) public onlyOwner {\r\n    delete members[user];\r\n    numMembers--;\r\n  }\r\n\r\n  function addProposal(string memory text) public onlyMembers {\r\n    lawList[numLaw++] = Law(text, false, State.Proposed, new address[](0));\r\n  }\r\n\r\n  function revProposal(uint id) public onlyMembers checkProposal(id) {\r\n    delete lawList[id];\r\n  }\r\n\r\n  function openVote(uint id) public onlyMembers checkProposal(id) {\r\n    require(lawList[id].voteOpen == false);\r\n\r\n    lawList[id].voteOpen = true;\r\n  }\r\n\r\n  function closeVote(uint id) public onlyMembers checkProposal(id) {\r\n    require(lawList[id].voteOpen == true);\r\n\r\n    if (wrapVote(id)) {\r\n      lawList[id].lawState = State.Validated;\r\n    } else {\r\n      lawList[id].lawState = State.Refused;\r\n    }\r\n    lawList[id].voteOpen = false;\r\n  }\r\n\r\n  function vote(uint id, bool res) public onlyMembers checkProposal(id) {\r\n    require(!(lawList[id].votePool[msg.sender]));\r\n\r\n    addVote(id, msg.sender, res);\r\n  }\r\n}\r\n",
  "sourcePath": "C:/Users/Narcisse/source/repos/BlockChain/contracts/DAVE.sol",
  "compiler": {
    "name": "solc",
    "version": "0.5.0+commit.1d4f565a.Emscripten.clang"
  },
  "schemaVersion": "3.0.2",
  "updatedAt": "2019-02-23T14:41:31.078Z",
  "devdoc": {
    "methods": {
      "isOwner()": {
        "return": "true if `msg.sender` is the owner of the contract."
      },
      "owner()": {
        "return": "the address of the owner."
      },
      "renounceOwnership()": {
        "details": "Allows the current owner to relinquish control of the contract."
      },
      "transferOwnership(address)": {
        "details": "Allows the current owner to transfer control of the contract to a newOwner.",
        "params": {
          "newOwner": "The address to transfer ownership to."
        }
      }
    }
  },
  "userdoc": {
    "methods": {
      "renounceOwnership()": {
        "notice": "Renouncing to ownership will leave the contract without an owner. It will not be possible to call the functions with the `onlyOwner` modifier anymore."
      }
    }
  }
}