{
  "contractName": "SmartContract",
  "abi": [
    {
      "constant": true,
      "inputs": [],
      "name": "name",
      "outputs": [
        {
          "name": "",
          "type": "string"
        }
      ],
      "payable": false,
      "stateMutability": "view",
      "type": "function",
      "signature": "0x06fdde03"
    },
    {
      "constant": true,
      "inputs": [],
      "name": "decimals",
      "outputs": [
        {
          "name": "",
          "type": "uint8"
        }
      ],
      "payable": false,
      "stateMutability": "view",
      "type": "function",
      "signature": "0x313ce567"
    },
    {
      "constant": true,
      "inputs": [],
      "name": "symbol",
      "outputs": [
        {
          "name": "",
          "type": "string"
        }
      ],
      "payable": false,
      "stateMutability": "view",
      "type": "function",
      "signature": "0x95d89b41"
    },
    {
      "inputs": [
        {
          "name": "initialSupply",
          "type": "uint256"
        },
        {
          "name": "owner",
          "type": "address"
        }
      ],
      "payable": false,
      "stateMutability": "nonpayable",
      "type": "constructor",
      "signature": "constructor"
    },
    {
      "anonymous": false,
      "inputs": [
        {
          "indexed": true,
          "name": "you",
          "type": "address"
        },
        {
          "indexed": true,
          "name": "receiver",
          "type": "address"
        },
        {
          "indexed": false,
          "name": "amount",
          "type": "uint256"
        }
      ],
      "name": "Transfer",
      "type": "event",
      "signature": "0xddf252ad1be2c89b69c2b068fc378daa952ba7f163c4a11628f55a4df523b3ef"
    },
    {
      "constant": true,
      "inputs": [],
      "name": "getTotalSupply",
      "outputs": [
        {
          "name": "",
          "type": "uint256"
        }
      ],
      "payable": false,
      "stateMutability": "view",
      "type": "function",
      "signature": "0xc4e41b22"
    },
    {
      "constant": true,
      "inputs": [
        {
          "name": "owner",
          "type": "address"
        }
      ],
      "name": "getBalanceOf",
      "outputs": [
        {
          "name": "",
          "type": "uint256"
        }
      ],
      "payable": false,
      "stateMutability": "view",
      "type": "function",
      "signature": "0x9b96eece"
    },
    {
      "constant": false,
      "inputs": [
        {
          "name": "receiver",
          "type": "address"
        },
        {
          "name": "amount",
          "type": "uint256"
        }
      ],
      "name": "sendAmount",
      "outputs": [
        {
          "name": "",
          "type": "bool"
        }
      ],
      "payable": false,
      "stateMutability": "nonpayable",
      "type": "function",
      "signature": "0x5d461de5"
    }
  ],
  "bytecode": "0x608060405234801561001057600080fd5b506040516040806107258339810180604052604081101561003057600080fd5b81019080805190602001909291908051906020019092919050505081600181905550816000808373ffffffffffffffffffffffffffffffffffffffff1673ffffffffffffffffffffffffffffffffffffffff168152602001908152602001600020819055508073ffffffffffffffffffffffffffffffffffffffff16600073ffffffffffffffffffffffffffffffffffffffff167fddf252ad1be2c89b69c2b068fc378daa952ba7f163c4a11628f55a4df523b3ef846040518082815260200191505060405180910390a350506106198061010c6000396000f3fe608060405260043610610078576000357c0100000000000000000000000000000000000000000000000000000000900463ffffffff16806306fdde031461007d578063313ce5671461010d5780635d461de51461013e57806395d89b41146101b15780639b96eece14610241578063c4e41b22146102a6575b600080fd5b34801561008957600080fd5b506100926102d1565b6040518080602001828103825283818151815260200191508051906020019080838360005b838110156100d25780820151818401526020810190506100b7565b50505050905090810190601f1680156100ff5780820380516001836020036101000a031916815260200191505b509250505060405180910390f35b34801561011957600080fd5b5061012261030a565b604051808260ff1660ff16815260200191505060405180910390f35b34801561014a57600080fd5b506101976004803603604081101561016157600080fd5b81019080803573ffffffffffffffffffffffffffffffffffffffff1690602001909291908035906020019092919050505061030f565b604051808215151515815260200191505060405180910390f35b3480156101bd57600080fd5b506101c6610562565b6040518080602001828103825283818151815260200191508051906020019080838360005b838110156102065780820151818401526020810190506101eb565b50505050905090810190601f1680156102335780820380516001836020036101000a031916815260200191505b509250505060405180910390f35b34801561024d57600080fd5b506102906004803603602081101561026457600080fd5b81019080803573ffffffffffffffffffffffffffffffffffffffff16906020019092919050505061059b565b6040518082815260200191505060405180910390f35b3480156102b257600080fd5b506102bb6105e3565b6040518082815260200191505060405180910390f35b6040805190810160405280600781526020017f455049434f494e0000000000000000000000000000000000000000000000000081525081565b601281565b60008073ffffffffffffffffffffffffffffffffffffffff168373ffffffffffffffffffffffffffffffffffffffff16141515156103db576040517f08c379a00000000000000000000000000000000000000000000000000000000081526004018080602001828103825260258152602001807f5061732064652064c3a9646f75626c656d656e7420646520706572736f6e6e6181526020017f6c6974c3a900000000000000000000000000000000000000000000000000000081525060400191505060405180910390fd5b6103e43361059b565b821115151561045b576040517f08c379a00000000000000000000000000000000000000000000000000000000081526004018080602001828103825260138152602001807f50617320617373657a20646520666c6f757a650000000000000000000000000081525060200191505060405180910390fd5b816000803373ffffffffffffffffffffffffffffffffffffffff1673ffffffffffffffffffffffffffffffffffffffff16815260200190815260200160002060008282540392505081905550816000808573ffffffffffffffffffffffffffffffffffffffff1673ffffffffffffffffffffffffffffffffffffffff168152602001908152602001600020600082825401925050819055508273ffffffffffffffffffffffffffffffffffffffff163373ffffffffffffffffffffffffffffffffffffffff167fddf252ad1be2c89b69c2b068fc378daa952ba7f163c4a11628f55a4df523b3ef846040518082815260200191505060405180910390a36001905092915050565b6040805190810160405280600381526020017f455043000000000000000000000000000000000000000000000000000000000081525081565b60008060008373ffffffffffffffffffffffffffffffffffffffff1673ffffffffffffffffffffffffffffffffffffffff168152602001908152602001600020549050919050565b600060015490509056fea165627a7a72305820c291660b6b215f19d26f87e0e91ff639290cbc7d86cf213f331eaffc1a6217eb0029",
  "source": "pragma solidity >=0.4.21 <0.6.0;\r\n\r\ncontract SmartContract\r\n{\r\n    // Un dictionnaire d'adresses de compte & de montants\r\n    mapping(address => uint256) kvpBalances;\r\n\r\n    // Le \"titre\" du contrat.\r\n    string public constant name = \"EPICOIN\";\r\n    // Le \"symbole\" du contrat.\r\n    string public constant symbol = \"EPC\";\r\n    // Le nombre minimal de \"monnaie\" que le contrat peut recevoir à la création.\r\n    uint8 public constant decimals = 18;\r\n\r\n    uint256 totalSupply;\r\n\r\n    event Transfer(address indexed you, address indexed receiver, uint256 amount);\r\n\r\n    constructor (uint256 initialSupply, address owner) public\r\n    {\r\n        totalSupply = initialSupply;\r\n        kvpBalances[owner] = initialSupply;\r\n        emit Transfer(address(0), owner, initialSupply);\r\n    }\r\n\r\n    // view ~= constant. Fonction pure et fonctionelle, sans effet de bord. Getter de totalSupply\r\n    function getTotalSupply() public view returns (uint256)\r\n    {\r\n        return totalSupply;\r\n    }\r\n\r\n    function getBalanceOf(address owner) public view returns (uint256) {\r\n        return kvpBalances[owner];\r\n    }\r\n\r\n    /*\r\n    * Méthode pour envoyer un montant à une addresse.\r\n    * On vérifie que l'envoyeur n'est pas le receveur, et que son solde est suffisant.\r\n    * On déduit la somme de la balance de l'envoyeur, on l'ajoute au solde du receveur.\r\n    * On appelle Transfer \r\n    */\r\n    function sendAmount(address receiver, uint256 amount) public returns (bool) {\r\n        require(receiver != address(0), \"Pas de dédoublement de personnalité\");\r\n        require(amount <= getBalanceOf(msg.sender), \"Pas assez de flouze\");\r\n\r\n        kvpBalances[msg.sender] -= amount;\r\n        kvpBalances[receiver] += amount;\r\n\r\n        emit Transfer(msg.sender, receiver, amount);\r\n        return true;\r\n    }\r\n}",
  "sourcePath": "C:/Users/Narcisse/source/repos/BlockChain/contracts/SmartContract.sol",
  "compiler": {
    "name": "solc",
    "version": "0.5.0+commit.1d4f565a.Emscripten.clang"
  },
  "schemaVersion": "3.0.2",
  "updatedAt": "2019-02-22T15:33:12.578Z",
  "devdoc": {
    "methods": {}
  },
  "userdoc": {
    "methods": {}
  }
}